:020000040800F2
:1000000000040020490100088F030008870300084E
:100010008B030008B9010008550500080000000026
:10002000000000000000000000000000B503000810
:100030003D0200080000000091030008A104000830
:100040006301000863010008630100086301000800
:1000500063010008630100086301000863010008F0
:1000600063010008630100086301000863010008E0
:1000700063010008630100086301000863010008D0
:10008000630100086301000863010008000000002C
:1000900000000000000000000000000063010008F4
:1000A00063010008630100086301000863010008A0
:1000B0006301000863010008630100086301000890
:1000C0006301000863010008630100086301000880
:1000D0006301000863010008630100086301000870
:1000E0006301000863010008630100086301000860
:1000F0006301000863010008000000000000000028
:100100000000000000000000630100086301000817
:10011000630100086301000863010008630100082F
:10012000630100086301000863010008630100081F
:1001300063010008DFF80CD000F018F80048004711
:10014000770500080004002006488047064800475D
:10015000FEE7FEE7FEE7FEE7FEE7FEE7FEE7FEE777
:10016000FEE7FEE7A504000835010008064C074D30
:1001700006E0E06840F0010394E807009847103477
:10018000AC42F6D3FFF7DAFF8405000894050008B7
:1001900010B51021074800F0F2F82021054800F0C2
:1001A000F0F84021034800F0EAF88021014800F00F
:1001B000E8F810BD0008014000BFFEE710B5044696
:1001C00014B900F09FF911E0012C02D100F0AEF952
:1001D0000CE0022C0AD0032C08D0042C02D100F031
:1001E0002FF803E0052C01D1FFF7D2FF10BD00006E
:1001F00008B501210C2000F0CDF8F020ADF800008A
:1002000010208DF8030003208DF80200694609488C
:1002100000F02AF80320ADF800006946064800F017
:1002200023F80321044800F0ACF8F021014800F065
:10023000A8F808BD00080140000C0140704700000C
:1002400010B51021074800F09CF82021054800F067
:1002500096F84021034800F094F88021014800F00E
:100260008EF810BD000801402DE9F041024600253E
:100270000026002000230024002791F803C00CF082
:100280000F0591F803C00CF0100CBCF1000F03D067
:1002900091F802C04CEA050591F800C0BCF1000FCE
:1002A00031D0146800202BE04FF0010C0CFA00F361
:1002B000B1F800C00CEA03069E4220D183004FF043
:1002C0000F0C0CFA03F7BC4305FA03FC4CEA0404D8
:1002D00091F803C0BCF1280F06D14FF0010C0CFAC5
:1002E00000FCC2F814C00AE091F803C0BCF1480F4A
:1002F00005D14FF0010C0CFA00FCC2F810C0401CF4
:100300000828D1D31460B1F800C0BCF1FF0F34DD70
:10031000546800202EE000F1080C4FF0010808FAA4
:100320000CF3B1F800C00CEA03069E4221D1830011
:100330004FF00F0C0CFA03F7BC4305FA03FC4CEA30
:10034000040491F803C0BCF1280F05D100F1080C9A
:1003500008FA0CF8C2F8148091F803C0BCF1480FF9
:1003600007D100F1080C4FF0010808FA0CF8C2F8A8
:100370001080401C0828CED35460BDE8F081416154
:1003800070470161704700BFFEE700BFFEE770479E
:100390007047000029B1064A92690243044B9A61F2
:1003A00004E0034A92698243014B9A61704700005E
:1003B00000100240704710B500F002F810BD0000B8
:1003C0000CB50020019000903348006840F4803064
:1003D0003149086000BF3048006800F400300090E8
:1003E0000198401C0190009818B90198B0F5A06FD1
:1003F000F1D12948006800F4003010B101200090CC
:1004000001E0002000900098012843D123480068B3
:1004100040F01000214908600846006820F0030001
:1004200008600846006840F0020008601A4840680A
:10043000194948600846406848600846406840F4EA
:10044000806048600846406820F47C104860084698
:10045000406840F4E81048600846006840F080704A
:10046000086000BF0C48006800F000700028F9D058
:100470000948406820F00300074948600846406882
:1004800040F00200486000BF0348406800F00C00E4
:100490000828F9D10CBD00000010024000200240E5
:1004A0007047000010B51348006840F00100114982
:1004B000086008464068104908400E4948600846F0
:1004C00000680E4908400B4908600846006820F49F
:1004D000802008600846406820F4FE0048604FF421
:1004E0001F008860FFF767FF4FF000600449086055
:1004F00010BD0000001002400000FFF8FFFFF6FEF4
:1005000008ED00E010B510210748FFF73AFF202161
:100510000548FFF734FF40210348FFF730FF8021F3
:100520000148FFF72EFF10BD0008014010B5102153
:100530000748FFF724FF20210548FFF722FF40214D
:100540000348FFF71EFF80210148FFF718FF10BD89
:100550000008014000BFFEE702E008C8121F08C102
:10056000002AFAD170477047002001E001C1121F34
:10057000002AFBD17047FFF73BFE02E00420FFF7A3
:100580001DFEFBE7940500080000002000040000A9
:0405900068050008F2
:0400000508000135B9
:00000001FF
