:020000040800F2
:100000000804002049010008CF030008C7030008C6
:10001000CB030008B90100085909000800000000DE
:1000200000000000000000000000000015040008AF
:100030007F02000800000000D103000871050008DD
:100040006301000863010008630100086301000800
:1000500063010008630100086301000863010008F0
:1000600063010008630100086301000863010008E0
:1000700063010008630100086301000863010008D0
:10008000630100086301000863010008000000002C
:1000900000000000000000000000000063010008F4
:1000A00063010008630100086301000863010008A0
:1000B0006301000863010008630100086301000890
:1000C0006301000863010008630100086301000880
:1000D0006301000863010008630100086301000870
:1000E0006301000863010008630100086301000860
:1000F0006301000863010008000000000000000028
:100100000000000000000000630100086301000817
:10011000630100086301000863010008630100082F
:10012000630100086301000863010008630100081F
:1001300063010008DFF80CD000F018F80048004711
:100140007B0900080804002006488047064800474D
:10015000FEE7FEE7FEE7FEE7FEE7FEE7FEE7FEE777
:10016000FEE7FEE77505000835010008064C074D5F
:1001700006E0E06840F0010394E807009847103477
:10018000AC42F6D3FFF7DAFF90090008B009000887
:1001900010B51021074800F012F92021054800F0A1
:1001A00010F94021034800F00AF98021014800F0CD
:1001B00008F910BD0008014000BFFEE710B500F0CF
:1001C0002FF800F007FA00F01FFA10BD10B500215B
:1001D000024800F06DFA00F017FA10BD000400406C
:1001E00010B5044614B900F07BFB17E0012C02D1D6
:1001F00000F09EFB12E0022C02D100F05DFB0DE04E
:10020000032C02D100F080FB08E0042C02D100F0A6
:1002100037F803E0052C01D1FFF7BAFF10BD00004D
:1002200008B50121042000F0E5F8F020ADF8000049
:1002300010208DF8030003208DF802006946044861
:1002400000F032F8F021024800F0BBF808BD0000D1
:100250000008014010B5044614B900F051F90DE052
:10026000012C02D100F068F908E0022C02D100F064
:1002700055F903E0032C01D100F06CF910BD704773
:1002800010B51021074800F09CF82021054800F027
:1002900096F84021034800F094F88021014800F0CE
:1002A0008EF810BD000801402DE9F04102460025FE
:1002B0000026002000230024002791F803C00CF042
:1002C0000F0591F803C00CF0100CBCF1000F03D027
:1002D00091F802C04CEA050591F800C0BCF1000F8E
:1002E00031D0146800202BE04FF0010C0CFA00F321
:1002F000B1F800C00CEA03069E4220D183004FF003
:100300000F0C0CFA03F7BC4305FA03FC4CEA040497
:1003100091F803C0BCF1280F06D14FF0010C0CFA84
:1003200000FCC2F814C00AE091F803C0BCF1480F09
:1003300005D14FF0010C0CFA00FCC2F810C0401CB3
:100340000828D1D31460B1F800C0BCF1FF0F34DD30
:10035000546800202EE000F1080C4FF0010808FA64
:100360000CF3B1F800C00CEA03069E4221D18300D1
:100370004FF00F0C0CFA03F7BC4305FA03FC4CEAF0
:10038000040491F803C0BCF1280F05D100F1080C5A
:1003900008FA0CF8C2F8148091F803C0BCF1480FB9
:1003A00007D100F1080C4FF0010808FA0CF8C2F868
:1003B0001080401C0828CED35460BDE8F081416114
:1003C00070470161704700BFFEE700BFFEE770475E
:1003D0007047000029B1064AD2690243044BDA6132
:1003E00004E0034AD2698243014BDA61704700009E
:1003F0000010024029B1064A92690243044B9A61F7
:1004000004E0034A92698243014B9A6170470000FD
:1004100000100240704710B500F002F810BD000057
:100420000CB50020019000903348006840F4803003
:100430003149086000BF3048006800F40030009087
:100440000198401C0190009818B90198B0F5A06F70
:10045000F1D12948006800F4003010B1012000906B
:1004600001E0002000900098012843D12348006853
:1004700040F01000214908600846006820F00300A1
:1004800008600846006840F0020008601A484068AA
:10049000194948600846406848600846406840F48A
:1004A000806048600846406820F47C104860084638
:1004B000406840F4E81048600846006840F08070EA
:1004C000086000BF0C48006800F000700028F9D0F8
:1004D0000948406820F00300074948600846406822
:1004E00040F00200486000BF0348406800F00C0084
:1004F0000828F9D10CBD0000001002400020024085
:1005000010B54FF47A700349088003490880FFF75B
:100510005DFE10BD020000200000002010B5642028
:100520000349088003490880FFF750FE10BD000012
:10053000020000200000002010B54FF4FA700349BB
:10054000088003490880FFF741FE10BD020000202B
:100550000000002010B500200349088003490880EE
:10056000FFF734FE10BD0000020000200000002054
:100570007047000010B51348006840F001001149B1
:10058000086008464068104908400E49486008461F
:1005900000680E4908400B4908600846006820F4CE
:1005A000802008600846406820F4FE0048604FF450
:1005B0001F008860FFF72FFF4FF0006004490860BC
:1005C00010BD0000001002400000FFF8FFFFF6FE23
:1005D00008ED00E008B501210220FFF7FBFE012134
:1005E0000820FFF707FF0320ADF8000018208DF862
:1005F000030003208DF8020069460248FFF754FE0D
:1006000008BD0000000C014030B587B01F480588C8
:100610001F48048840F2E730ADF814000020ADF820
:100620001000ADF81600ADF8120004A9194800F04A
:10063000F1F86020ADF800000120ADF80200ADF83F
:1006400006500020ADF808006946124800F03CF85A
:100650000821104800F088F80120ADF80200ADF83C
:1006600006400020ADF8080069460A4800F086F808
:100670000821084800F0C0F80121064800F00CF8F5
:100680000121044800F014F807B030BD000000203C
:10069000020000200004004021B1028842F08002E4
:1006A000028004E002884FF67F731A400280704790
:1006B00021B1028842F00102028004E002884FF674
:1006C000FE731A400280704770B500240022002398
:1006D000058C4FF6FF6635400584028C8388848B39
:1006E0004FF68F752C404FF6FC752C400D882C432F
:1006F0004FF6FF552A400D894FF6FF7606EA05258D
:100700002A434D8806EA05252A43154DA84202D002
:10071000144DA8421DD14FF2FF752A404D894FF666
:10072000FF7606EA05252A434FF6FF352A408D88D5
:1007300006EA05252A434EF6FF752B404DF6FF7558
:100740002B408D8906EA05152B43CD8906EA051550
:100750002B4383808483CD888587028470BD00000D
:10076000002C0140003401400A460021818B4FF6E5
:10077000F7731940114381837047000070B5002260
:1007800000230024058C4EF6FF7635400584038C4B
:100790008488828B48F6FF752A404FF6FF452A4031
:1007A0000D884FF6FF7606EA05252A434DF6FF75BC
:1007B0002B400D8906EA05352B434D8806EA0535A1
:1007C0002B430B4DA84202D00A4DA84208D14BF64C
:1007D000FF752C408D894FF6FF7606EA85152C4370
:1007E00084808283CD88A0F84050038470BD0000CF
:1007F000002C0140003401400A460021818B4FF259
:10080000FF7319404FF6FF7303EA022319438183F4
:1008100070470000002202881D4B98420ED01D4BED
:1008200098420BD0B0F1804F08D01B4B984205D0B6
:100830001A4B984202D01A4B984204D14FF68F734C
:100840001A404B881A43174B984207D0164B9842D0
:1008500004D04FF6FF431A40CB881A4302808B889E
:1008600083850B8803850A4B98420BD0094B98422D
:1008700008D00E4B984205D00D4B984202D00D4B3C
:10088000984201D10B7A03860123838270470000CE
:10089000002C0140003401400004004000080040EA
:1008A000000C0040001000400014004000400140D7
:1008B000004401400048014010B510210748FFF7EF
:1008C00080FD20210548FFF77CFD40210348FFF70C
:1008D00076FD80210148FFF774FD10BD000801403E
:1008E00010B510210748FFF76AFD20210548FFF7E2
:1008F00068FD40210348FFF764FD80210148FFF7B0
:100900005EFD10BD0008014010B510210748FFF73B
:1009100056FD20210548FFF754FD40210348FFF70D
:1009200050FD80210148FFF74CFD10BD000801403B
:1009300010B510210748FFF744FD20210548FFF7B7
:100940003EFD40210348FFF73AFD80210148FFF7B3
:1009500038FD10BD0008014000BFFEE702E008C8F6
:10096000121F08C1002AFAD170477047002001E029
:1009700001C1121F002AFBD17047FFF71FFC0520A1
:10098000FFF72EFC0120FFF765FC00BFFEE700002B
:10099000B009000800000020040000005C09000805
:1009A000B409000804000020040400006C090008D9
:0409B0000000000043
:0400000508000135B9
:00000001FF
